S016000046616E4374726C50726F6A6563742E737265638D
S11300000C942A000C9447000C9447000C9447006D
S11300100C94F0050C94C7050C9447000C9447000D
S11300200C9447000C9447000C949E050C947505A1
S11300300C9447000C9447000C9447000C94470020
S11300400C94AE000C9447000C9447000C944700A9
S11300500C94470011241FBECFE5D8E0DEBFCDBF0E
S113006011E0A0E6B0E0ECE9F5E102C005900D92E4
S1130070A834B107D9F721E0A8E4B1E001C01D928A
S1130080AA39B207E1F70E94ED060C94CC0A0C944D
S1130090000041E066E080E30E94E300089580915F
S11300A04801181634F441E066E080E30E941A0126
S11300B0089540E066E080E30E941A010895CF931A
S11300C0DF93009799F1EC0140E060E089E30E943E
S11300D0E300898140E4849F90011124988140E2E7
S11300E0949FC0011124822B9E81892B87B98D8115
S11300F0982F9295990F907E8C818068892B9A8194
S1130100990F990F990F892B86B98B818295880F46
S1130110807E80BF8A81813059F48F819885909345
S11301204A0180934901789480E003C081E001C0D2
S113013080E0DF91CF910895892B71F03499349A3E
S1130140369A349BFECF84B125B190E0922BFB010B
S11301509183808380E0089581E008951F920F9237
S11301600FB60F9211242F933F934F935F936F9386
S11301707F938F939F93AF93BF93EF93FF93E091FC
S11301804901F0914A01309709F00995FF91EF91E7
S1130190BF91AF919F918F917F916F915F914F919B
S11301A03F912F910F900FBE0F901F90189590EDD7
S11301B0980F9A3030F48F5FE82FF0E0608380E08E
S11301C0089581E0089590ED980F9A3018F5411143
S11301D010C08F5FE82FF0E0208181E090E002C042
S11301E0880F991F6A95E2F780958223808380E0C7
S11301F00895413089F48F5FE82FF0E0208181E099
S113020090E002C0880F991F6A95E2F7822B8083E1
S113021080E0089581E0089580E0089590ED980FBE
S11302209A3030F48E5FE82FF0E0608380E0089528
S113023081E0089590ED980F9A3018F5411110C09F
S11302408E5FE82FF0E0208181E090E002C0880F0B
S1130250991F6A95E2F780958223808380E0089550
S1130260413089F48E5FE82FF0E0208181E090E056
S113027002C0880F991F6A95E2F7822B808380E081
S1130280089581E0089581E00895E82FF0E08081E9
S11302900895E82FF0E0208181E090E002C0880F0B
S11302A0991F6A95E2F7922F982381E009F480E080
S11302B008951F93CF93DF930097F1F1162FEC016C
S11302C089810E9445018F70912F907F682F692B3F
S11302D089810E940E0141E060E08A810E941A0136
S11302E041E062E08A810E941A0182E08A95F1F776
S11302F000C040E062E08A810E941A0189810E9464
S113030045018F7090E1199FB0011124682B8981F8
S11303100E940E0141E062E08A810E941A0182E09B
S11303208A95F1F700C040E062E08A810E941A01D8
S113033095E89A95F1F7000081E0DF91CF911F9144
S11303400895EF92FF920F931F93CF93FB010097B1
S113035091F0309781F06081662369F08F017C0110
S1130360C0E0C7010E945901CF5FF801EC0FF11DF5
S113037060816111F6CF81E0CF911F910F91FF90C1
S1130380EF9008951F93CF93DF93009709F444C02F
S1130390162FEC0189810E9445018F70912F907F67
S11303A0682F692B89810E940E0140E060E08A81F8
S11303B00E941A0141E062E08A810E941A0182E0EF
S11303C08A95F1F700C040E062E08A810E941A0138
S11303D095E89A95F1F7000089810E9445018F7094
S11303E090E1199FB0011124682B89810E940E01AC
S11303F041E062E08A810E941A0182E08A95F1F765
S113040000C040E062E08A810E941A0195E89A9552
S1130410F1F7000080E001C081E0DF91CF911F91EE
S113042008951F93CF93DF930097D1F1EC0114E06B
S113043041E0612F89810E94E3001F5F1830C1F7FA
S113044041E060E08A810E94E30041E062E08A8149
S11304500E94E30041E061E08A810E94E30063E3DB
S1130460CE010E94C20162E3CE010E94C20168E291
S1130470CE010E94C20140E061E08A810E941A011B
S11304806EE0CE010E94C20161E0CE010E94C20171
S113049066E0CE010E94C20181E0888380E001C051
S11304A081E0DF91CF911F910895833511F4BB9AB8
S11304B008958F9A08954F925F926F927F92AF92B0
S11304C0BF92CF92DF92EF92FF920F931F93CF933D
S11304D0DF93E42F122F009709F400C1A7019601BE
S11304E0702FFE2E062FEC0168837A83E9831C8328
S11304F02D833E834F835887733051F5942F832F78
S1130500722F66270E94D3099B01AC0160E074E25C
S113051084EF9AE40E9461092B013C0122E0F2126B
S11305200BC0912F80E064E670E00E948A0A7B0190
S113053081E0E81AF10836C0912F80E064E670E0AB
S11305400E948A0A8FEF90E07C01E61AF70A2AC01B
S1130550AEEFB1E00E949E0A0E94D3099B01AC0158
S113056060E074E284EF9AE40E9461092B013C018B
S113057022E0F2120AC02FEF129FC001112464E698
S113058070E00E948A0A7B010DC02FEF129FC00108
S1130590112464E670E00E948A0A8FEF90E07C01E7
S11305A0E61AF70A20E030E040E85FE3C301B20155
S11305B00E945C0988231CF481E08B835CC020E0EA
S11305C030E040E85FE3C301B2010E94850A1816D7
S11305D06CF420E030E040E051E4C301B2010E9439
S11305E05C0988231CF482E08B8345C020E030E062
S11305F040E051E4C301B2010E94850A18166CF46C
S113060020E030E040E852E4C301B2010E945C09FA
S113061088231CF483E08B832EC020E030E040E884
S113062052E4C301B2010E94850A18166CF420E05A
S113063030E040E853E4C301B2010E945C0988231E
S11306401CF484E08B8317C020E030E040E853E4DE
S1130650C301B2010E94850A18160CF041C020E0C3
S113066030E040E854E4C301B2010E945C098823ED
S1130670CCF585E08B83E02FF0E090818B81892B92
S113068080832A81E881F0E08081922F9270990F13
S1130690990F990F20FBAA24A0F8B12C0024B6943A
S11306A0A7940794B694A7940794BA2CA02CA92ACB
S11306B0A82AA082E881F0E0908189818295807FD8
S11306C0892B8083033511F4ECBE03C0053409F48F
S11306D0E3BC88810E94550280E005C081E003C02C
S11306E082E001C082E0DF91CF911F910F91FF90D2
S11306F0EF90DF90CF90BF90AF907F906F905F901E
S11307004F900895833511F4BB9808958F980895F8
S1130710BF92CF92DF92EF92FF920F931F93CF93EA
S1130720DF93009781F067017801022FB42E162F12
S1130730EC0188810E9482032B2D412F6881CE0118
S11307400E945B0201C081E0DF91CF911F910F9164
S1130750FF90EF90DF90CF90BF900895009751F0F5
S1130760262FFC01608342836FEF822F0E94D70003
S113077080E0089581E008950097E9F06A30E8F494
S1130780DC0112968C911297813051F4E62FF0E03F
S1130790E05AFF4F60818C910E940E0180E0089521
S11307A0E62FF0E0E05AFF4F608160958C910E9443
S11307B00E0180E0089581E0089581E00895CF93CB
S11307C0DF93D42FFC01418360832283422F0E9454
S11307D0AE03C0E041E06C2F8D2F0E94E300CF5F99
S11307E0C430C1F780E0DF91CF9108950F931F9338
S11307F0CF93DF93EC018B01FB0160810E94BC036A
S113080041E060E089810E941A0140E061E0898151
S11308100E941A0140E062E089810E941A0140E0CE
S113082063E089810E941A018FE097E20197F1F752
S113083000C00000F8016181CE010E94BC0340E0C9
S113084060E089810E941A0141E061E089810E948F
S11308501A0140E062E089810E941A0140E063E0ED
S113086089810E941A018FE097E20197F1F700C095
S11308700000F8016281CE010E94BC0340E060E008
S113088089810E941A0140E061E089810E941A0175
S113089041E062E089810E941A0140E063E08981BD
S11308A00E941A018FE097E20197F1F700C000005F
S11308B0F8016381CE010E94BC0340E060E08981BD
S11308C00E941A0140E061E089810E941A0140E01F
S11308D062E089810E941A0141E063E089810E94FB
S11308E01A018FE097E20197F1F700C0000040E0A1
S11308F060E089810E941A0140E061E089810E94E0
S11309001A0140E062E089810E941A0140E063E03C
S113091089810E941A0180E0DF91CF911F910F918C
S11309200895CF93DF93EC0160E00E94BC0341E0A3
S113093060E089810E941A0141E061E089810E949E
S11309401A0141E062E089810E941A0141E063E0FA
S113095089810E941A0180E0DF91CF910895FC0102
S1130960892B09F4BEC08081833509F05AC0858182
S113097082BF87818CBF8381823019F483B78860FA
S113098083BF8181813051F489B7816089BF8285B9
S11309909385909352018093510120C0823051F489
S11309A089B7826089BF848595859093500180932F
S11309B04F0114C0833091F489B7816089BF89B72E
S11309C0826089BF828593859093520180935101FF
S11309D0848595859093500180934F01818188236C
S11309E009F078948481813031F4A081B0E08C9155
S11309F080618C936DC0823031F4A081B0E08C9121
S1130A0080628C9365C0833009F062C0A081B0E03D
S1130A108C9180618C93A081B0E08C9180628C93E6
S1130A2057C0853409F05FC0858184BD878183BD4B
S1130A308381823019F485B5886085BD81818130D8
S1130A4051F489B7806489BF8285938590934E0160
S1130A5080934D0120C0823051F489B7806889BFEA
S1130A608485958590934C0180934B0114C0833009
S1130A7091F489B7806489BF89B7806889BF82850A
S1130A80938590934E0180934D0184859585909331
S1130A904C0180934B018481813031F4A081B0E01A
S1130AA08C9180618C9314C0823031F4A081B0E0C9
S1130AB08C9180628C930CC0833051F4A081B0E09F
S1130AC08C9180618C93A081B0E08C9180628C9336
S1130AD0A081B0E08C91887F9281892B8C9380E0F7
S1130AE0089581E0089581E008951F920F920FB652
S1130AF00F9211242F933F934F935F936F937F93A0
S1130B008F939F93AF93BF93EF93FF93E091510122
S1130B10F0915201309709F00995FF91EF91BF913F
S1130B20AF919F918F917F916F915F914F913F9181
S1130B302F910F900FBE0F901F9018951F920F9238
S1130B400FB60F9211242F933F934F935F936F939C
S1130B507F938F939F93AF93BF93EF93FF93E09112
S1130B604F01F0915001309709F00995FF91EF91F1
S1130B70BF91AF919F918F917F916F915F914F91B1
S1130B803F912F910F900FBE0F901F9018951F92B9
S1130B900F920FB60F9211242F933F934F935F93AD
S1130BA06F937F938F939F93AF93BF93EF93FF9331
S1130BB0E0914D01F0914E01309709F00995FF91B4
S1130BC0EF91BF91AF919F918F917F916F915F91C1
S1130BD04F913F912F910F900FBE0F901F9018953A
S1130BE01F920F920FB60F9211242F933F934F939E
S1130BF05F936F937F938F939F93AF93BF93EF9381
S1130C00FF93E0914B01F0914C01309709F0099565
S1130C10FF91EF91BF91AF919F918F917F916F91D0
S1130C205F914F913F912F910F900FBE0F901F90A6
S1130C30189540E063E089E30E94E300E5E5F1E014
S1130C4083E381838283CF010E941102089563E0CC
S1130C5089E30E944901882341F080915401811164
S1130C600BC081E0809354010CC08091540188230F
S1130C7041F01092540105C0809158018F5F809318
S1130C80580180915801843180F0109258011092DB
S1130C90540181E08093530180ED97E090935A01D1
S1130CA08093590184E1809348010895CF93809102
S1130CB0530181113EC060E885E591E00E94C201C4
S1130CC06AE670E085E591E00E94A10160EC85E5AB
S1130CD091E00E94C2016BE770E085E591E00E941B
S1130CE0A10160919901CDEC6C9F612D1124669551
S1130CF066956695605D85E591E00E945901609175
S1130D0099016C9FC12D1124C695C695C695CC0F2B
S1130D108C2F880F880FC80F6C1B605D85E591E0F0
S1130D200E94590163E870E085E591E00E94A10109
S1130D3025C060E885E591E00E94C2016BE870E09F
S1130D4085E591E00E94A10160EC85E591E00E94B7
S1130D50C201E0916D01EE0FFF0BEB5CFE4F608171
S1130D60718185E591E00E94A101809159019091E2
S1130D705A011816190614F010925301CF910895D0
S1130D800E94EE080E943C090E9486080E9467089F
S1130D900E9457070E9427068091590190915A0199
S1130DA0019790935A018093590180914801815091
S1130DB08093480108950E94AC070E9407070E948F
S1130DC019060E94E40780EC96E00E94A5080E94A0
S1130DD0490084E18093480108950E94DB068091D4
S1130DE08801811111C00E9482070E9439080E9463
S1130DF00B080E94CA080E9422090E94B4070E949C
S1130E0056060E944F00EBCF0E94DF07E8CFCF9336
S1130E10EBE5F1E01582108617821682128286E0D5
S1130E20848381E0818310821382CF010E945F005A
S1130E3040E060E089E30E94E300C4E041E06C2FFD
S1130E4089E30E94E300CF5FC830C1F780E0CF910F
S1130E500895EF92FF920F931F93CF93DF93082F80
S1130E6014E0C0E0D0E0EE24E394F12CC7010C2E92
S1130E7002C0880F991F0A94E2F7802331F041E001
S1130E80612F89E30E941A0105C040E0612F89E3C4
S1130E900E941A0121961F5FC430D10539F780E002
S1130EA0DF91CF911F910F91FF90EF90089569E624
S1130EB071E08BE591E00E949C0080916901909122
S1130EC06A0140916B0150916C01BC01641B750B6C
S1130ED09B0122F422273327261B370B2B303105A5
S1130EE01CF021E0209364019093660180936501D6
S1130EF0509368014093670190936C0180936B0158
S1130F0080E0089580916401882321F18091650136
S1130F109091660120916701309168012817390783
S1130F2040F420916D0129305CF42F5F20936D0112
S1130F3007C020916D0112161CF4215020936D01FD
S1130F40909368018093670180916D010E94290745
S1130F501092640180E0089521E040E366E382E7B3
S1130F6091E00E94DF03089520918501EEE6F1E00F
S1130F708DEC289F912D1124969596959695492F41
S1130F80440F342F330F330F340F231B20839183EB
S1130F9090918601989F812D11248695869586953A
S1130FA0382F330F232F220F220F230F921B9283EC
S1130FB08383BF0182E791E00E94F603089582E7EC
S1130FC091E00E9491040895CF92DF92EF92FF92F4
S1130FD00F9340E061E089E30E94E30040E062E0B7
S1130FE089E30E94E30084E1809399010F2EF6E9DE
S1130FF0CF2ED12CE12CF12CF02D03E024E143E0A1
S113100065E489E791E00E945B020F91FF90EF9005
S1131010DF90CF900895EF92FF920F931F938091EA
S113102075018823A1F084E180934801809199019E
S11310308F3521F487E38093990105C0873319F430
S113104084E180939901109275011092760116E95A
S1131050E12EF12C00E010E023E04091990163E0DF
S113106089E791E00E9488031F910F91FF90EF9010
S11310700895EF92FF920F931F9380917701882335
S1131080A1F084E18093480180919901843121F495
S113109087E38093990105C0873319F48FE5809322
S11310A09901109277011092780116E9E12EF12C42
S11310B000E010E023E04091990163E089E791E0CA
S11310C00E9488031F910F91FF90EF90089561E0B3
S11310D089E30E944901882341F0809178018111BC
S11310E00BC081E080937801089580917801882372
S11310F061F01092780108951092780181E0809354
S1131100770110925A0110925901089562E089E31F
S11311100E944901882341F08091760181110BC01E
S113112081E080937601089580917601882361F0AF
S11311301092760108951092760181E080937501F2
S113114010925A01109259010895CF93DF93EC0144
S113115041E064E080E30E94E30040E065E080E376
S11311600E94E300EBE8F1E083E5808385E082837D
S1131170148282E0818383838DE490E09087878367
S113118016821582D587C487CF010E94AF04DF91F0
S1131190CF9108959091870189E2989F812D112420
S11311A086958695869522E3829F90191124911144
S11311B014C080918201811109C081E08093820171
S11311C041E064E080E30E941A01089510928201D4
S11311D040E064E080E30E941A0108958091870151
S11311E0843640F48F5F8093870180918301882344
S11311F041F102C010928701109283018091840111
S1131200181624F4815080938401089580918501F7
S113121018163CF48150809385018BE380938401FC
S113122008958091860118164CF4815080938601AC
S11312308BE38093850180938401089581E08093FA
S113124088010895809189018823A9F084E180931D
S1131250480180918601843024F48F5F8093860155
S113126002C010928601109285011092840110929E
S1131270890110928A01089565E080E30E94490182
S1131280882341F080918A0181110BC081E0809311
S11312908A01089580918A01882369F010928A0155
S11312A0089510928A0181E08093890180918801D8
S11312B081111092880108950E94100A08F481E0B7
S11312C008950E9475090C944B0A0E94440A58F030
S11312D00E943D0A40F029F45F3F29F00C94340A3F
S11312E051110C947F0A0C943A0A0E945C0A68F328
S11312F09923B1F3552391F3951B550BBB27AA27CB
S113130062177307840738F09F5F5F4F220F331F04
S1131310441FAA1FA9F335D00E2E3AF0E0E832D0CC
S113132091505040E695001CCAF72BD0FE2F29D0CF
S1131330660F771F881FBB1F261737074807AB07A1
S1131340B0E809F0BB0B802DBF01FF2793585F4F16
S11313503AF09E3F510578F00C94340A0C947F0ABD
S11313605F3FE4F3983ED4F3869577956795B795F8
S1131370F7959F5FC9F7880F911D9695879597F903
S11313800895E1E0660F771F881FBB1F621773077C
S11313908407BA0720F0621B730B840BBA0BEE1F91
S11313A088F7E0950895E89409C097FB3EF490957A
S11313B08095709561957F4F8F4F9F4F9923A9F02A
S11313C0F92F96E9BB279395F695879577956795B9
S11313D0B795F111F8CFFAF4BB0F11F460FF1BC0FD
S11313E06F5F7F4F8F4F9F4F16C0882311F096E990
S11313F011C0772321F09EE8872F762F05C066233E
S113140071F096E8862F70E060E02AF09A95660FF6
S1131410771F881FDAF7880F9695879597F90895AF
S1131420990F0008550FAA0BE0E8FEEF16161706F1
S1131430E807F907C0F012161306E407F50798F059
S1131440621B730B840B950B39F40A2661F0232B72
S1131450242B252B21F408950A2609F4A140A695EE
S11314608FEF811D811D089597F99F6780E870E0D3
S113147060E008959FEF80EC089500240A94161606
S1131480170618060906089500240A94121613066E
S1131490140605060895092E0394000C11F48823FC
S11314A052F0BB0F40F4BF2B11F460FF04C06F5F18
S11314B07F4F8F4F9F4F089557FD9058440F551FEE
S11314C059F05F3F71F04795880F97FB991F61F0C2
S11314D09F3F79F087950895121613061406551F39
S11314E0F2CF4695F1DF08C0161617061806991FA5
S11314F0F1CF86957105610508940895E894BB279A
S113150066277727CB0197F908950E94100A08F4FB
S11315108FEF089597FB072E16F4009407D077FDFC
S113152009D00E94A90A07FC05D03EF49095819544
S11315309F4F0895709561957F4F08950E94BD0A4D
S1131540A59F900DB49F900DA49F800D911D112413
S11315500895AA1BBB1B51E107C0AA1FBB1FA617F6
S1131560B70710F0A61BB70B881F991F5A95A9F748
S113157080959095BC01CD010895A29FB001B39FC1
S1131580C001A39F700D811D1124911DB29F700D88
S10F1590811D1124911D0895F894FFCFD3
S113159C3F065B4F666D7D077F6F20204D6F746F28
S11315AC7220537065656420202000537065656457
S11315BC3D200020446567726565002020537769DF
S11315CC6E67202056616C75652020002020202039
S11315DC202020202020202020202020002020201B
S11315EC202020202A2A20202020202020002020F7
S11315FC202020202A2A2A2A2020202020200020D3
S113160C202020202A2A2A2A2A2A202020202000AE
S113161C202020202A2A2A2A2A2A2A2A202020206A
S113162C002020202A2A2A2A2A2A2A2A2A2A202066
S113163C200020202A2A2A2A2A2A2A2A2A2A2A2A42
S113164C202000202A2A2A2A2A2A2A2A2A2A2A2A32
S113165C2A2A20002A2A2A2A2A2A2A2A2A2A2A2A0E
S113166C2A2A2A2A009C00AD00BE00CF00E000F11B
S10B167C000201130124010026
S9030000FC
